{
  "_format": "hh-sol-artifact-1",
  "contractName": "VotePortal",
  "sourceName": "contracts/VotePortal.sol",
  "abi": [
    {
      "inputs": [
        {
          "internalType": "string[]",
          "name": "_options",
          "type": "string[]"
        }
      ],
      "stateMutability": "payable",
      "type": "constructor"
    },
    {
      "anonymous": false,
      "inputs": [
        {
          "indexed": true,
          "internalType": "address",
          "name": "from",
          "type": "address"
        },
        {
          "indexed": false,
          "internalType": "uint256",
          "name": "timestamp",
          "type": "uint256"
        }
      ],
      "name": "NewVote",
      "type": "event"
    },
    {
      "inputs": [],
      "name": "getVotes",
      "outputs": [
        {
          "components": [
            {
              "internalType": "string",
              "name": "option",
              "type": "string"
            },
            {
              "internalType": "uint256",
              "name": "count",
              "type": "uint256"
            }
          ],
          "internalType": "struct VotePortal.Vote[]",
          "name": "",
          "type": "tuple[]"
        }
      ],
      "stateMutability": "view",
      "type": "function"
    },
    {
      "inputs": [
        {
          "internalType": "uint256",
          "name": "",
          "type": "uint256"
        }
      ],
      "name": "options",
      "outputs": [
        {
          "internalType": "string",
          "name": "",
          "type": "string"
        }
      ],
      "stateMutability": "view",
      "type": "function"
    },
    {
      "inputs": [
        {
          "internalType": "uint256",
          "name": "optionIndex",
          "type": "uint256"
        }
      ],
      "name": "vote",
      "outputs": [],
      "stateMutability": "nonpayable",
      "type": "function"
    },
    {
      "inputs": [
        {
          "internalType": "uint256",
          "name": "",
          "type": "uint256"
        }
      ],
      "name": "votes",
      "outputs": [
        {
          "internalType": "string",
          "name": "option",
          "type": "string"
        },
        {
          "internalType": "uint256",
          "name": "count",
          "type": "uint256"
        }
      ],
      "stateMutability": "view",
      "type": "function"
    }
  ],
  "bytecode": "0x6080604052604051620014b8380380620014b88339818101604052810190620000299190620003cc565b80600290805190602001906200004192919062000143565b5060005b81518160ff161015620001195760016040518060400160405280848460ff16815181106200009c577f4e487b7100000000000000000000000000000000000000000000000000000000600052603260045260246000fd5b60200260200101518152602001600081525090806001815401808255809150506001900390600052602060002090600202016000909190919091506000820151816000019080519060200190620000f5929190620001aa565b5060208201518160010155505060018162000111919062000504565b905062000045565b50606444426200012a9190620004a7565b620001369190620005c5565b60048190555050620006b9565b82805482825590600052602060002090810192821562000197579160200282015b828111156200019657825182908051906020019062000185929190620001aa565b509160200191906001019062000164565b5b509050620001a691906200023b565b5090565b828054620001b8906200058f565b90600052602060002090601f016020900481019282620001dc576000855562000228565b82601f10620001f757805160ff191683800117855562000228565b8280016001018555821562000228579182015b82811115620002275782518255916020019190600101906200020a565b5b50905062000237919062000263565b5090565b5b808211156200025f576000818162000255919062000282565b506001016200023c565b5090565b5b808211156200027e57600081600090555060010162000264565b5090565b50805462000290906200058f565b6000825580601f10620002a45750620002c5565b601f016020900490600052602060002090810190620002c4919062000263565b5b50565b6000620002df620002d98462000445565b62000411565b9050808382526020820190508260005b858110156200032357815185016200030888826200039f565b845260208401935060208301925050600181019050620002ef565b5050509392505050565b6000620003446200033e8462000474565b62000411565b9050828152602081018484840111156200035d57600080fd5b6200036a84828562000559565b509392505050565b600082601f8301126200038457600080fd5b815162000396848260208601620002c8565b91505092915050565b600082601f830112620003b157600080fd5b8151620003c38482602086016200032d565b91505092915050565b600060208284031215620003df57600080fd5b600082015167ffffffffffffffff811115620003fa57600080fd5b620004088482850162000372565b91505092915050565b6000604051905081810181811067ffffffffffffffff821117156200043b576200043a6200068a565b5b8060405250919050565b600067ffffffffffffffff8211156200046357620004626200068a565b5b602082029050602081019050919050565b600067ffffffffffffffff8211156200049257620004916200068a565b5b601f19601f8301169050602081019050919050565b6000620004b48262000542565b9150620004c18362000542565b9250827fffffffffffffffffffffffffffffffffffffffffffffffffffffffffffffffff03821115620004f957620004f8620005fd565b5b828201905092915050565b600062000511826200054c565b91506200051e836200054c565b92508260ff03821115620005375762000536620005fd565b5b828201905092915050565b6000819050919050565b600060ff82169050919050565b60005b83811015620005795780820151818401526020810190506200055c565b8381111562000589576000848401525b50505050565b60006002820490506001821680620005a857607f821691505b60208210811415620005bf57620005be6200065b565b5b50919050565b6000620005d28262000542565b9150620005df8362000542565b925082620005f257620005f16200062c565b5b828206905092915050565b7f4e487b7100000000000000000000000000000000000000000000000000000000600052601160045260246000fd5b7f4e487b7100000000000000000000000000000000000000000000000000000000600052601260045260246000fd5b7f4e487b7100000000000000000000000000000000000000000000000000000000600052602260045260246000fd5b7f4e487b7100000000000000000000000000000000000000000000000000000000600052604160045260246000fd5b610def80620006c96000396000f3fe608060405234801561001057600080fd5b506004361061004c5760003560e01c80630121b93f146100515780630dc960151461006d578063409e22051461008b5780635df81330146100bb575b600080fd5b61006b600480360381019061006691906107cf565b6100ec565b005b610075610492565b6040516100829190610a4c565b60405180910390f35b6100a560048036038101906100a091906107cf565b61058d565b6040516100b29190610a6e565b60405180910390f35b6100d560048036038101906100d091906107cf565b610639565b6040516100e3929190610ac0565b60405180910390f35b600360003373ffffffffffffffffffffffffffffffffffffffff1673ffffffffffffffffffffffffffffffffffffffff16815260200190815260200160002060009054906101000a900460ff1615610179576040517f08c379a000000000000000000000000000000000000000000000000000000000815260040161017090610b10565b60405180910390fd5b600160008082825461018b9190610bdc565b9250508190555060018082815481106101cd577f4e487b7100000000000000000000000000000000000000000000000000000000600052603260045260246000fd5b906000526020600020906002020160010160008282546101ed9190610bdc565b925050819055506001600360003373ffffffffffffffffffffffffffffffffffffffff1673ffffffffffffffffffffffffffffffffffffffff16815260200190815260200160002060006101000a81548160ff02191690831515021790555061028b6040518060400160405280600d81526020017f25732068617320766f7465642100000000000000000000000000000000000000815250336106f5565b3373ffffffffffffffffffffffffffffffffffffffff167fff14080bcf45460ad8e42f48fb1741ebb5632b5394c805a3526ecc99e9a97a54426040516102d19190610b50565b60405180910390a2606460045442446102ea9190610bdc565b6102f49190610bdc565b6102fe9190610cd3565b60048190555060146004541161044f5761034d6040518060400160405280600e81526020017f25732057696e73207072697a6521000000000000000000000000000000000000815250336106f5565b600066038d7ea4c6800090504781111561039c576040517f08c379a000000000000000000000000000000000000000000000000000000000815260040161039390610b30565b60405180910390fd5b60003373ffffffffffffffffffffffffffffffffffffffff16826040516103c290610a37565b60006040518083038185875af1925050503d80600081146103ff576040519150601f19603f3d011682016040523d82523d6000602084013e610404565b606091505b5050905080610448576040517f08c379a000000000000000000000000000000000000000000000000000000000815260040161043f90610af0565b60405180910390fd5b505061048f565b61048e6040518060400160405280601781526020017f2573204469646e27742077696e207072697a6521203a28000000000000000000815250336106f5565b5b50565b60606001805480602002602001604051908101604052809291908181526020016000905b8282101561058457838290600052602060002090600202016040518060400160405290816000820180546104e990610ca1565b80601f016020809104026020016040519081016040528092919081815260200182805461051590610ca1565b80156105625780601f1061053757610100808354040283529160200191610562565b820191906000526020600020905b81548152906001019060200180831161054557829003601f168201915b50505050508152602001600182015481525050815260200190600101906104b6565b50505050905090565b6002818154811061059d57600080fd5b9060005260206000200160009150905080546105b890610ca1565b80601f01602080910402602001604051908101604052809291908181526020018280546105e490610ca1565b80156106315780601f1061060657610100808354040283529160200191610631565b820191906000526020600020905b81548152906001019060200180831161061457829003601f168201915b505050505081565b6001818154811061064957600080fd5b906000526020600020906002020160009150905080600001805461066c90610ca1565b80601f016020809104026020016040519081016040528092919081815260200182805461069890610ca1565b80156106e55780601f106106ba576101008083540402835291602001916106e5565b820191906000526020600020905b8154815290600101906020018083116106c857829003601f168201915b5050505050908060010154905082565b61078d828260405160240161070b929190610a90565b6040516020818303038152906040527f319af333000000000000000000000000000000000000000000000000000000007bffffffffffffffffffffffffffffffffffffffffffffffffffffffff19166020820180517bffffffffffffffffffffffffffffffffffffffffffffffffffffffff8381831617835250505050610791565b5050565b60008151905060006a636f6e736f6c652e6c6f679050602083016000808483855afa5050505050565b6000813590506107c981610da2565b92915050565b6000602082840312156107e157600080fd5b60006107ef848285016107ba565b91505092915050565b600061080483836109dc565b905092915050565b61081581610c32565b82525050565b600061082682610b7b565b6108308185610b9e565b93508360208202850161084285610b6b565b8060005b8581101561087e578484038952815161085f85826107f8565b945061086a83610b91565b925060208a01995050600181019050610846565b50829750879550505050505092915050565b600061089b82610b86565b6108a58185610bba565b93506108b5818560208601610c6e565b6108be81610d91565b840191505092915050565b60006108d482610b86565b6108de8185610bcb565b93506108ee818560208601610c6e565b6108f781610d91565b840191505092915050565b600061090f602083610bcb565b91507f4552524f525f5749544844524157494e475f434f4e54524143545f46554e44536000830152602082019050919050565b600061094f601583610bcb565b91507f414444524553535f414c52454144595f564f54454400000000000000000000006000830152602082019050919050565b600061098f601583610bcb565b91507f434f4e54524143545f4f55545f4f465f46554e445300000000000000000000006000830152602082019050919050565b60006109cf600083610baf565b9150600082019050919050565b600060408301600083015184820360008601526109f98282610890565b9150506020830151610a0e6020860182610a19565b508091505092915050565b610a2281610c64565b82525050565b610a3181610c64565b82525050565b6000610a42826109c2565b9150819050919050565b60006020820190508181036000830152610a66818461081b565b905092915050565b60006020820190508181036000830152610a8881846108c9565b905092915050565b60006040820190508181036000830152610aaa81856108c9565b9050610ab9602083018461080c565b9392505050565b60006040820190508181036000830152610ada81856108c9565b9050610ae96020830184610a28565b9392505050565b60006020820190508181036000830152610b0981610902565b9050919050565b60006020820190508181036000830152610b2981610942565b9050919050565b60006020820190508181036000830152610b4981610982565b9050919050565b6000602082019050610b656000830184610a28565b92915050565b6000819050602082019050919050565b600081519050919050565b600081519050919050565b6000602082019050919050565b600082825260208201905092915050565b600081905092915050565b600082825260208201905092915050565b600082825260208201905092915050565b6000610be782610c64565b9150610bf283610c64565b9250827fffffffffffffffffffffffffffffffffffffffffffffffffffffffffffffffff03821115610c2757610c26610d04565b5b828201905092915050565b6000610c3d82610c44565b9050919050565b600073ffffffffffffffffffffffffffffffffffffffff82169050919050565b6000819050919050565b60005b83811015610c8c578082015181840152602081019050610c71565b83811115610c9b576000848401525b50505050565b60006002820490506001821680610cb957607f821691505b60208210811415610ccd57610ccc610d62565b5b50919050565b6000610cde82610c64565b9150610ce983610c64565b925082610cf957610cf8610d33565b5b828206905092915050565b7f4e487b7100000000000000000000000000000000000000000000000000000000600052601160045260246000fd5b7f4e487b7100000000000000000000000000000000000000000000000000000000600052601260045260246000fd5b7f4e487b7100000000000000000000000000000000000000000000000000000000600052602260045260246000fd5b6000601f19601f8301169050919050565b610dab81610c64565b8114610db657600080fd5b5056fea26469706673582212200a7c5d0ddee27c3df0ca22ee0928093483847eef0032c3e9c23fade8670b0bbe64736f6c63430008000033",
  "linkReferences": {},
  "deployedLinkReferences": {}
}