{
  "_format": "hh-sol-artifact-1",
  "contractName": "VotePortal",
  "sourceName": "contracts/VotePortal.sol",
  "abi": [
    {
      "inputs": [
        {
          "internalType": "string[][]",
          "name": "_options",
          "type": "string[][]"
        }
      ],
      "stateMutability": "payable",
      "type": "constructor"
    },
    {
      "anonymous": false,
      "inputs": [
        {
          "indexed": true,
          "internalType": "address",
          "name": "from",
          "type": "address"
        },
        {
          "indexed": false,
          "internalType": "uint256",
          "name": "timestamp",
          "type": "uint256"
        }
      ],
      "name": "NewVote",
      "type": "event"
    },
    {
      "inputs": [],
      "name": "getVotes",
      "outputs": [
        {
          "components": [
            {
              "internalType": "string",
              "name": "name",
              "type": "string"
            },
            {
              "internalType": "string",
              "name": "description",
              "type": "string"
            },
            {
              "internalType": "uint256",
              "name": "count",
              "type": "uint256"
            }
          ],
          "internalType": "struct VotePortal.Vote[]",
          "name": "",
          "type": "tuple[]"
        }
      ],
      "stateMutability": "view",
      "type": "function"
    },
    {
      "inputs": [
        {
          "internalType": "uint256",
          "name": "optionIndex",
          "type": "uint256"
        }
      ],
      "name": "vote",
      "outputs": [],
      "stateMutability": "nonpayable",
      "type": "function"
    },
    {
      "inputs": [
        {
          "internalType": "uint256",
          "name": "",
          "type": "uint256"
        }
      ],
      "name": "votes",
      "outputs": [
        {
          "internalType": "string",
          "name": "name",
          "type": "string"
        },
        {
          "internalType": "string",
          "name": "description",
          "type": "string"
        },
        {
          "internalType": "uint256",
          "name": "count",
          "type": "uint256"
        }
      ],
      "stateMutability": "view",
      "type": "function"
    }
  ],
  "bytecode": "0x6080604052604051620015c9380380620015c983398181016040528101906200002991906200045d565b60005b81518160ff161015620001ed5760016040518060600160405280848460ff168151811062000083577f4e487b7100000000000000000000000000000000000000000000000000000000600052603260045260246000fd5b6020026020010151600081518110620000c5577f4e487b7100000000000000000000000000000000000000000000000000000000600052603260045260246000fd5b60200260200101518152602001848460ff16815181106200010f577f4e487b7100000000000000000000000000000000000000000000000000000000600052603260045260246000fd5b602002602001015160018151811062000151577f4e487b7100000000000000000000000000000000000000000000000000000000600052603260045260246000fd5b60200260200101518152602001600081525090806001815401808255809150506001900390600052602060002090600302016000909190919091506000820151816000019080519060200190620001aa92919062000217565b506020820151816001019080519060200190620001c992919062000217565b50604082015181600201555050600181620001e59190620005c4565b90506200002c565b5060644442620001fe919062000567565b6200020a919062000685565b6003819055505062000779565b82805462000225906200064f565b90600052602060002090601f01602090048101928262000249576000855562000295565b82601f106200026457805160ff191683800117855562000295565b8280016001018555821562000295579182015b828111156200029457825182559160200191906001019062000277565b5b509050620002a49190620002a8565b5090565b5b80821115620002c3576000816000905550600101620002a9565b5090565b6000620002de620002d884620004d6565b620004a2565b9050808382526020820190508260005b8581101562000322578151850162000307888262000403565b845260208401935060208301925050600181019050620002ee565b5050509392505050565b6000620003436200033d8462000505565b620004a2565b9050808382526020820190508260005b858110156200038757815185016200036c888262000430565b84526020840193506020830192505060018101905062000353565b5050509392505050565b6000620003a8620003a28462000534565b620004a2565b905082815260208101848484011115620003c157600080fd5b620003ce84828562000619565b509392505050565b600082601f830112620003e857600080fd5b8151620003fa848260208601620002c7565b91505092915050565b600082601f8301126200041557600080fd5b8151620004278482602086016200032c565b91505092915050565b600082601f8301126200044257600080fd5b81516200045484826020860162000391565b91505092915050565b6000602082840312156200047057600080fd5b600082015167ffffffffffffffff8111156200048b57600080fd5b6200049984828501620003d6565b91505092915050565b6000604051905081810181811067ffffffffffffffff82111715620004cc57620004cb6200074a565b5b8060405250919050565b600067ffffffffffffffff821115620004f457620004f36200074a565b5b602082029050602081019050919050565b600067ffffffffffffffff8211156200052357620005226200074a565b5b602082029050602081019050919050565b600067ffffffffffffffff8211156200055257620005516200074a565b5b601f19601f8301169050602081019050919050565b6000620005748262000602565b9150620005818362000602565b9250827fffffffffffffffffffffffffffffffffffffffffffffffffffffffffffffffff03821115620005b957620005b8620006bd565b5b828201905092915050565b6000620005d1826200060c565b9150620005de836200060c565b92508260ff03821115620005f757620005f6620006bd565b5b828201905092915050565b6000819050919050565b600060ff82169050919050565b60005b83811015620006395780820151818401526020810190506200061c565b8381111562000649576000848401525b50505050565b600060028204905060018216806200066857607f821691505b602082108114156200067f576200067e6200071b565b5b50919050565b6000620006928262000602565b91506200069f8362000602565b925082620006b257620006b1620006ec565b5b828206905092915050565b7f4e487b7100000000000000000000000000000000000000000000000000000000600052601160045260246000fd5b7f4e487b7100000000000000000000000000000000000000000000000000000000600052601260045260246000fd5b7f4e487b7100000000000000000000000000000000000000000000000000000000600052602260045260246000fd5b7f4e487b7100000000000000000000000000000000000000000000000000000000600052604160045260246000fd5b610e4080620007896000396000f3fe608060405234801561001057600080fd5b50600436106100415760003560e01c80630121b93f146100465780630dc96015146100625780635df8133014610080575b600080fd5b610060600480360381019061005b9190610813565b6100b2565b005b61006a6102aa565b6040516100779190610aaa565b60405180910390f35b61009a60048036038101906100959190610813565b610437565b6040516100a993929190610afc565b60405180910390f35b600260003373ffffffffffffffffffffffffffffffffffffffff1673ffffffffffffffffffffffffffffffffffffffff16815260200190815260200160002060009054906101000a900460ff161561013f576040517f08c379a000000000000000000000000000000000000000000000000000000000815260040161013690610b61565b60405180910390fd5b60016000808282546101519190610c2d565b925050819055506001808281548110610193577f4e487b7100000000000000000000000000000000000000000000000000000000600052603260045260246000fd5b906000526020600020906003020160020160008282546101b39190610c2d565b925050819055506001600260003373ffffffffffffffffffffffffffffffffffffffff1673ffffffffffffffffffffffffffffffffffffffff16815260200190815260200160002060006101000a81548160ff0219169083151502179055506102516040518060400160405280600d81526020017f25732068617320766f746564210000000000000000000000000000000000000081525033610581565b3373ffffffffffffffffffffffffffffffffffffffff167fff14080bcf45460ad8e42f48fb1741ebb5632b5394c805a3526ecc99e9a97a54426040516102979190610ba1565b60405180910390a26102a761061d565b50565b60606001805480602002602001604051908101604052809291908181526020016000905b8282101561042e578382906000526020600020906003020160405180606001604052908160008201805461030190610cf2565b80601f016020809104026020016040519081016040528092919081815260200182805461032d90610cf2565b801561037a5780601f1061034f5761010080835404028352916020019161037a565b820191906000526020600020905b81548152906001019060200180831161035d57829003601f168201915b5050505050815260200160018201805461039390610cf2565b80601f01602080910402602001604051908101604052809291908181526020018280546103bf90610cf2565b801561040c5780601f106103e15761010080835404028352916020019161040c565b820191906000526020600020905b8154815290600101906020018083116103ef57829003601f168201915b50505050508152602001600282015481525050815260200190600101906102ce565b50505050905090565b6001818154811061044757600080fd5b906000526020600020906003020160009150905080600001805461046a90610cf2565b80601f016020809104026020016040519081016040528092919081815260200182805461049690610cf2565b80156104e35780601f106104b8576101008083540402835291602001916104e3565b820191906000526020600020905b8154815290600101906020018083116104c657829003601f168201915b5050505050908060010180546104f890610cf2565b80601f016020809104026020016040519081016040528092919081815260200182805461052490610cf2565b80156105715780601f1061054657610100808354040283529160200191610571565b820191906000526020600020905b81548152906001019060200180831161055457829003601f168201915b5050505050908060020154905083565b6106198282604051602401610597929190610acc565b6040516020818303038152906040527f319af333000000000000000000000000000000000000000000000000000000007bffffffffffffffffffffffffffffffffffffffffffffffffffffffff19166020820180517bffffffffffffffffffffffffffffffffffffffffffffffffffffffff83818316178352505050506107d5565b5050565b6064600354424461062e9190610c2d565b6106389190610c2d565b6106429190610d24565b600381905550601460035411610793576106916040518060400160405280600e81526020017f25732057696e73207072697a652100000000000000000000000000000000000081525033610581565b600066038d7ea4c680009050478111156106e0576040517f08c379a00000000000000000000000000000000000000000000000000000000081526004016106d790610b81565b60405180910390fd5b60003373ffffffffffffffffffffffffffffffffffffffff168260405161070690610a95565b60006040518083038185875af1925050503d8060008114610743576040519150601f19603f3d011682016040523d82523d6000602084013e610748565b606091505b505090508061078c576040517f08c379a000000000000000000000000000000000000000000000000000000000815260040161078390610b41565b60405180910390fd5b50506107d3565b6107d26040518060400160405280601781526020017f2573204469646e27742077696e207072697a6521203a2800000000000000000081525033610581565b5b565b60008151905060006a636f6e736f6c652e6c6f679050602083016000808483855afa5050505050565b60008135905061080d81610df3565b92915050565b60006020828403121561082557600080fd5b6000610833848285016107fe565b91505092915050565b60006108488383610a20565b905092915050565b61085981610c83565b82525050565b600061086a82610bcc565b6108748185610bef565b93508360208202850161088685610bbc565b8060005b858110156108c257848403895281516108a3858261083c565b94506108ae83610be2565b925060208a0199505060018101905061088a565b50829750879550505050505092915050565b60006108df82610bd7565b6108e98185610c0b565b93506108f9818560208601610cbf565b61090281610de2565b840191505092915050565b600061091882610bd7565b6109228185610c1c565b9350610932818560208601610cbf565b61093b81610de2565b840191505092915050565b6000610953602083610c1c565b91507f4552524f525f5749544844524157494e475f434f4e54524143545f46554e44536000830152602082019050919050565b6000610993601583610c1c565b91507f414444524553535f414c52454144595f564f54454400000000000000000000006000830152602082019050919050565b60006109d3601583610c1c565b91507f434f4e54524143545f4f55545f4f465f46554e445300000000000000000000006000830152602082019050919050565b6000610a13600083610c00565b9150600082019050919050565b60006060830160008301518482036000860152610a3d82826108d4565b91505060208301518482036020860152610a5782826108d4565b9150506040830151610a6c6040860182610a77565b508091505092915050565b610a8081610cb5565b82525050565b610a8f81610cb5565b82525050565b6000610aa082610a06565b9150819050919050565b60006020820190508181036000830152610ac4818461085f565b905092915050565b60006040820190508181036000830152610ae6818561090d565b9050610af56020830184610850565b9392505050565b60006060820190508181036000830152610b16818661090d565b90508181036020830152610b2a818561090d565b9050610b396040830184610a86565b949350505050565b60006020820190508181036000830152610b5a81610946565b9050919050565b60006020820190508181036000830152610b7a81610986565b9050919050565b60006020820190508181036000830152610b9a816109c6565b9050919050565b6000602082019050610bb66000830184610a86565b92915050565b6000819050602082019050919050565b600081519050919050565b600081519050919050565b6000602082019050919050565b600082825260208201905092915050565b600081905092915050565b600082825260208201905092915050565b600082825260208201905092915050565b6000610c3882610cb5565b9150610c4383610cb5565b9250827fffffffffffffffffffffffffffffffffffffffffffffffffffffffffffffffff03821115610c7857610c77610d55565b5b828201905092915050565b6000610c8e82610c95565b9050919050565b600073ffffffffffffffffffffffffffffffffffffffff82169050919050565b6000819050919050565b60005b83811015610cdd578082015181840152602081019050610cc2565b83811115610cec576000848401525b50505050565b60006002820490506001821680610d0a57607f821691505b60208210811415610d1e57610d1d610db3565b5b50919050565b6000610d2f82610cb5565b9150610d3a83610cb5565b925082610d4a57610d49610d84565b5b828206905092915050565b7f4e487b7100000000000000000000000000000000000000000000000000000000600052601160045260246000fd5b7f4e487b7100000000000000000000000000000000000000000000000000000000600052601260045260246000fd5b7f4e487b7100000000000000000000000000000000000000000000000000000000600052602260045260246000fd5b6000601f19601f8301169050919050565b610dfc81610cb5565b8114610e0757600080fd5b5056fea2646970667358221220e99ba021213787f83a577b7e85ba76564681128d6201edcfab7bed7a3406c50d64736f6c63430008000033",
  "linkReferences": {},
  "deployedLinkReferences": {}
}