{
  "_format": "hh-sol-artifact-1",
  "contractName": "VotePortal",
  "sourceName": "contracts/VotePortal.sol",
  "abi": [
    {
      "inputs": [
        {
          "internalType": "string[]",
          "name": "_options",
          "type": "string[]"
        }
      ],
      "stateMutability": "nonpayable",
      "type": "constructor"
    },
    {
      "inputs": [],
      "name": "getVotes",
      "outputs": [
        {
          "components": [
            {
              "internalType": "string",
              "name": "option",
              "type": "string"
            },
            {
              "internalType": "uint256",
              "name": "count",
              "type": "uint256"
            }
          ],
          "internalType": "struct VotePortal.Vote[]",
          "name": "",
          "type": "tuple[]"
        }
      ],
      "stateMutability": "view",
      "type": "function"
    },
    {
      "inputs": [
        {
          "internalType": "uint256",
          "name": "",
          "type": "uint256"
        }
      ],
      "name": "options",
      "outputs": [
        {
          "internalType": "string",
          "name": "",
          "type": "string"
        }
      ],
      "stateMutability": "view",
      "type": "function"
    },
    {
      "inputs": [
        {
          "internalType": "uint256",
          "name": "optionIndex",
          "type": "uint256"
        }
      ],
      "name": "vote",
      "outputs": [],
      "stateMutability": "nonpayable",
      "type": "function"
    },
    {
      "inputs": [
        {
          "internalType": "uint256",
          "name": "",
          "type": "uint256"
        }
      ],
      "name": "votes",
      "outputs": [
        {
          "internalType": "string",
          "name": "option",
          "type": "string"
        },
        {
          "internalType": "uint256",
          "name": "count",
          "type": "uint256"
        }
      ],
      "stateMutability": "view",
      "type": "function"
    },
    {
      "inputs": [
        {
          "internalType": "string",
          "name": "",
          "type": "string"
        }
      ],
      "name": "votesMap",
      "outputs": [
        {
          "internalType": "string",
          "name": "option",
          "type": "string"
        },
        {
          "internalType": "uint256",
          "name": "count",
          "type": "uint256"
        }
      ],
      "stateMutability": "view",
      "type": "function"
    }
  ],
  "bytecode": "0x60806040523480156200001157600080fd5b50604051620012ae380380620012ae8339818101604052810190620000379190620004a2565b80600290805190602001906200004f92919062000219565b5060005b81518160ff161015620002115760016040518060400160405280848460ff1681518110620000aa577f4e487b7100000000000000000000000000000000000000000000000000000000600052603260045260246000fd5b602002602001015181526020016000815250908060018154018082558091505060019003906000526020600020906002020160009091909190915060008201518160000190805190602001906200010392919062000280565b506020820151816001015550506040518060400160405280838360ff168151811062000158577f4e487b7100000000000000000000000000000000000000000000000000000000600052603260045260246000fd5b6020026020010151815260200160008152506003838360ff1681518110620001a9577f4e487b7100000000000000000000000000000000000000000000000000000000600052603260045260246000fd5b6020026020010151604051620001c091906200051e565b90815260200160405180910390206000820151816000019080519060200190620001ec92919062000280565b5060208201518160010155905050600181620002099190620005e3565b905062000053565b505062000727565b8280548282559060005260206000209081019282156200026d579160200282015b828111156200026c5782518290805190602001906200025b92919062000280565b50916020019190600101906200023a565b5b5090506200027c919062000311565b5090565b8280546200028e9062000664565b90600052602060002090601f016020900481019282620002b25760008555620002fe565b82601f10620002cd57805160ff1916838001178555620002fe565b82800160010185558215620002fe579182015b82811115620002fd578251825591602001919060010190620002e0565b5b5090506200030d919062000339565b5090565b5b808211156200033557600081816200032b919062000358565b5060010162000312565b5090565b5b80821115620003545760008160009055506001016200033a565b5090565b508054620003669062000664565b6000825580601f106200037a57506200039b565b601f0160209004906000526020600020908101906200039a919062000339565b5b50565b6000620003b5620003af846200056b565b62000537565b9050808382526020820190508260005b85811015620003f95781518501620003de888262000475565b845260208401935060208301925050600181019050620003c5565b5050509392505050565b60006200041a62000414846200059a565b62000537565b9050828152602081018484840111156200043357600080fd5b620004408482856200062e565b509392505050565b600082601f8301126200045a57600080fd5b81516200046c8482602086016200039e565b91505092915050565b600082601f8301126200048757600080fd5b81516200049984826020860162000403565b91505092915050565b600060208284031215620004b557600080fd5b600082015167ffffffffffffffff811115620004d057600080fd5b620004de8482850162000448565b91505092915050565b6000620004f482620005cd565b620005008185620005d8565b9350620005128185602086016200062e565b80840191505092915050565b60006200052c8284620004e7565b915081905092915050565b6000604051905081810181811067ffffffffffffffff82111715620005615762000560620006f8565b5b8060405250919050565b600067ffffffffffffffff821115620005895762000588620006f8565b5b602082029050602081019050919050565b600067ffffffffffffffff821115620005b857620005b7620006f8565b5b601f19601f8301169050602081019050919050565b600081519050919050565b600081905092915050565b6000620005f08262000621565b9150620005fd8362000621565b92508260ff038211156200061657620006156200069a565b5b828201905092915050565b600060ff82169050919050565b60005b838110156200064e57808201518184015260208101905062000631565b838111156200065e576000848401525b50505050565b600060028204905060018216806200067d57607f821691505b60208210811415620006945762000693620006c9565b5b50919050565b7f4e487b7100000000000000000000000000000000000000000000000000000000600052601160045260246000fd5b7f4e487b7100000000000000000000000000000000000000000000000000000000600052602260045260246000fd5b7f4e487b7100000000000000000000000000000000000000000000000000000000600052604160045260246000fd5b610b7780620007376000396000f3fe608060405234801561001057600080fd5b50600436106100575760003560e01c80630121b93f1461005c5780630dc9601514610078578063409e220514610096578063440cd69a146100c65780635df81330146100f7575b600080fd5b6100766004803603810190610071919061068d565b610128565b005b6100806101e5565b60405161008d919061081b565b60405180910390f35b6100b060048036038101906100ab919061068d565b6102e0565b6040516100bd919061083d565b60405180910390f35b6100e060048036038101906100db919061064c565b61038c565b6040516100ee92919061088f565b60405180910390f35b610111600480360381019061010c919061068d565b61044e565b60405161011f92919061088f565b60405180910390f35b600160008082825461013a9190610986565b92505081905550600180828154811061017c577f4e487b7100000000000000000000000000000000000000000000000000000000600052603260045260246000fd5b9060005260206000209060020201600101600082825461019c9190610986565b925050819055506101e26040518060400160405280600d81526020017f25732068617320766f74656421000000000000000000000000000000000000008152503361050a565b50565b60606001805480602002602001604051908101604052809291908181526020016000905b828210156102d7578382906000526020600020906002020160405180604001604052908160008201805461023c90610a5a565b80601f016020809104026020016040519081016040528092919081815260200182805461026890610a5a565b80156102b55780601f1061028a576101008083540402835291602001916102b5565b820191906000526020600020905b81548152906001019060200180831161029857829003601f168201915b5050505050815260200160018201548152505081526020019060010190610209565b50505050905090565b600281815481106102f057600080fd5b90600052602060002001600091509050805461030b90610a5a565b80601f016020809104026020016040519081016040528092919081815260200182805461033790610a5a565b80156103845780601f1061035957610100808354040283529160200191610384565b820191906000526020600020905b81548152906001019060200180831161036757829003601f168201915b505050505081565b6003818051602081018201805184825260208301602085012081835280955050505050506000915090508060000180546103c590610a5a565b80601f01602080910402602001604051908101604052809291908181526020018280546103f190610a5a565b801561043e5780601f106104135761010080835404028352916020019161043e565b820191906000526020600020905b81548152906001019060200180831161042157829003601f168201915b5050505050908060010154905082565b6001818154811061045e57600080fd5b906000526020600020906002020160009150905080600001805461048190610a5a565b80601f01602080910402602001604051908101604052809291908181526020018280546104ad90610a5a565b80156104fa5780601f106104cf576101008083540402835291602001916104fa565b820191906000526020600020905b8154815290600101906020018083116104dd57829003601f168201915b5050505050908060010154905082565b6105a2828260405160240161052092919061085f565b6040516020818303038152906040527f319af333000000000000000000000000000000000000000000000000000000007bffffffffffffffffffffffffffffffffffffffffffffffffffffffff19166020820180517bffffffffffffffffffffffffffffffffffffffffffffffffffffffff83818316178352505050506105a6565b5050565b60008151905060006a636f6e736f6c652e6c6f679050602083016000808483855afa5050505050565b60006105e26105dd846108f0565b6108bf565b9050828152602081018484840111156105fa57600080fd5b610605848285610a18565b509392505050565b600082601f83011261061e57600080fd5b813561062e8482602086016105cf565b91505092915050565b60008135905061064681610b2a565b92915050565b60006020828403121561065e57600080fd5b600082013567ffffffffffffffff81111561067857600080fd5b6106848482850161060d565b91505092915050565b60006020828403121561069f57600080fd5b60006106ad84828501610637565b91505092915050565b60006106c283836107c0565b905092915050565b6106d3816109dc565b82525050565b60006106e482610930565b6106ee8185610953565b93508360208202850161070085610920565b8060005b8581101561073c578484038952815161071d85826106b6565b945061072883610946565b925060208a01995050600181019050610704565b50829750879550505050505092915050565b60006107598261093b565b6107638185610964565b9350610773818560208601610a27565b61077c81610b19565b840191505092915050565b60006107928261093b565b61079c8185610975565b93506107ac818560208601610a27565b6107b581610b19565b840191505092915050565b600060408301600083015184820360008601526107dd828261074e565b91505060208301516107f260208601826107fd565b508091505092915050565b61080681610a0e565b82525050565b61081581610a0e565b82525050565b6000602082019050818103600083015261083581846106d9565b905092915050565b600060208201905081810360008301526108578184610787565b905092915050565b600060408201905081810360008301526108798185610787565b905061088860208301846106ca565b9392505050565b600060408201905081810360008301526108a98185610787565b90506108b8602083018461080c565b9392505050565b6000604051905081810181811067ffffffffffffffff821117156108e6576108e5610aea565b5b8060405250919050565b600067ffffffffffffffff82111561090b5761090a610aea565b5b601f19601f8301169050602081019050919050565b6000819050602082019050919050565b600081519050919050565b600081519050919050565b6000602082019050919050565b600082825260208201905092915050565b600082825260208201905092915050565b600082825260208201905092915050565b600061099182610a0e565b915061099c83610a0e565b9250827fffffffffffffffffffffffffffffffffffffffffffffffffffffffffffffffff038211156109d1576109d0610a8c565b5b828201905092915050565b60006109e7826109ee565b9050919050565b600073ffffffffffffffffffffffffffffffffffffffff82169050919050565b6000819050919050565b82818337600083830152505050565b60005b83811015610a45578082015181840152602081019050610a2a565b83811115610a54576000848401525b50505050565b60006002820490506001821680610a7257607f821691505b60208210811415610a8657610a85610abb565b5b50919050565b7f4e487b7100000000000000000000000000000000000000000000000000000000600052601160045260246000fd5b7f4e487b7100000000000000000000000000000000000000000000000000000000600052602260045260246000fd5b7f4e487b7100000000000000000000000000000000000000000000000000000000600052604160045260246000fd5b6000601f19601f8301169050919050565b610b3381610a0e565b8114610b3e57600080fd5b5056fea2646970667358221220473eb65322f174d86a05c35b27115a63b8038d9f31bea1ad3d6d63dc5b2e951964736f6c63430008000033",
  "linkReferences": {},
  "deployedLinkReferences": {}
}